{
  "transactions": [
    {
      "hash": "0xdb3a74dee955a110605eb0db021f19e2a151fbf450b55dd693f1f9df3ff9b4fd",
      "transactionType": "CALL",
      "contractName": "ReentranceHack",
      "contractAddress": "0xC7f2Cf4845C6db0e1a1e91ED41Bcd0FcC1b0E141",
      "function": "donate()",
      "arguments": [],
      "rpc": "https://eth-goerli.g.alchemy.com/v2/z1IFdYsIK9IWoKu9o68vYQV7uoCf9fT3",
      "transaction": {
        "type": "0x02",
        "from": "0xb1bfb47518e59ad7568f3b6b0a71733a41fc99ad",
        "to": "0xc7f2cf4845c6db0e1a1e91ed41bcd0fcc1b0e141",
        "gas": "0x71a6",
        "value": "0x0",
        "data": "0xed88c68e",
        "nonce": "0x11d",
        "accessList": []
      },
      "additionalContracts": [],
      "isFixedGasLimit": false
    },
    {
      "hash": "0x801d7bc7cb145cd40be66bc9194ec5b7388ac055e3bb2746f43aaf25734d251e",
      "transactionType": "CALL",
      "contractName": "ReentranceHack",
      "contractAddress": "0xC7f2Cf4845C6db0e1a1e91ED41Bcd0FcC1b0E141",
      "function": "hack()",
      "arguments": [],
      "rpc": "https://eth-goerli.g.alchemy.com/v2/z1IFdYsIK9IWoKu9o68vYQV7uoCf9fT3",
      "transaction": {
        "type": "0x02",
        "from": "0xb1bfb47518e59ad7568f3b6b0a71733a41fc99ad",
        "to": "0xc7f2cf4845c6db0e1a1e91ed41bcd0fcc1b0e141",
        "gas": "0x71a6",
        "value": "0x0",
        "data": "0x4de260a2",
        "nonce": "0x11e",
        "accessList": []
      },
      "additionalContracts": [],
      "isFixedGasLimit": false
    },
    {
      "hash": null,
      "transactionType": "CALL",
      "contractName": "ReentranceHack",
      "contractAddress": "0xC7f2Cf4845C6db0e1a1e91ED41Bcd0FcC1b0E141",
      "function": "fundmeback(address)",
      "arguments": [
        "0xb1BfB47518E59Ad7568F3b6b0a71733A41fC99ad"
      ],
      "rpc": "https://eth-goerli.g.alchemy.com/v2/z1IFdYsIK9IWoKu9o68vYQV7uoCf9fT3",
      "transaction": {
        "type": "0x02",
        "from": "0xb1bfb47518e59ad7568f3b6b0a71733a41fc99ad",
        "to": "0xc7f2cf4845c6db0e1a1e91ed41bcd0fcc1b0e141",
        "gas": "0x73a2",
        "value": "0x0",
        "data": "0xf9284baf000000000000000000000000b1bfb47518e59ad7568f3b6b0a71733a41fc99ad",
        "nonce": "0x11f",
        "accessList": []
      },
      "additionalContracts": [],
      "isFixedGasLimit": false
    }
  ],
  "receipts": [],
  "libraries": [],
  "pending": [
    "0xdb3a74dee955a110605eb0db021f19e2a151fbf450b55dd693f1f9df3ff9b4fd",
    "0x801d7bc7cb145cd40be66bc9194ec5b7388ac055e3bb2746f43aaf25734d251e"
  ],
  "path": "/Users/chloe/Learning0323/ethernaut/broadcast/Reentrance.s.sol/5/run-latest.json",
  "returns": {},
  "timestamp": 1681028704,
  "chain": 5,
  "multi": false,
  "commit": "85e45ea"
}