{
  "transactions": [
    {
      "hash": "0xe8ee832a6aa4dcf0d8c4684a7375fff6fcf9f924e0bb626048e21a4d98f09fe7",
      "transactionType": "CALL",
      "contractName": "ReentranceHack",
      "contractAddress": "0xC7f2Cf4845C6db0e1a1e91ED41Bcd0FcC1b0E141",
      "function": "donate()",
      "arguments": [],
      "rpc": "https://eth-goerli.g.alchemy.com/v2/z1IFdYsIK9IWoKu9o68vYQV7uoCf9fT3",
      "transaction": {
        "type": "0x02",
        "from": "0xb1bfb47518e59ad7568f3b6b0a71733a41fc99ad",
        "to": "0xc7f2cf4845c6db0e1a1e91ed41bcd0fcc1b0e141",
        "gas": "0x71a6",
        "value": "0x0",
        "data": "0xed88c68e",
        "nonce": "0x11f",
        "accessList": []
      },
      "additionalContracts": [],
      "isFixedGasLimit": false
    },
    {
      "hash": "0xc1d7fb137b33a185398585bc45da1eb8fc4a4a31fcf46e81841b199e4e6792fe",
      "transactionType": "CALL",
      "contractName": "ReentranceHack",
      "contractAddress": "0xC7f2Cf4845C6db0e1a1e91ED41Bcd0FcC1b0E141",
      "function": "hack()",
      "arguments": [],
      "rpc": "https://eth-goerli.g.alchemy.com/v2/z1IFdYsIK9IWoKu9o68vYQV7uoCf9fT3",
      "transaction": {
        "type": "0x02",
        "from": "0xb1bfb47518e59ad7568f3b6b0a71733a41fc99ad",
        "to": "0xc7f2cf4845c6db0e1a1e91ed41bcd0fcc1b0e141",
        "gas": "0x71a6",
        "value": "0x0",
        "data": "0x4de260a2",
        "nonce": "0x120",
        "accessList": []
      },
      "additionalContracts": [],
      "isFixedGasLimit": false
    },
    {
      "hash": "0xd1be532367d5e3d01c8646a010c706bc3ab4ae261275e94f0026f0bf21785466",
      "transactionType": "CALL",
      "contractName": "ReentranceHack",
      "contractAddress": "0xC7f2Cf4845C6db0e1a1e91ED41Bcd0FcC1b0E141",
      "function": "fundmeback(address)",
      "arguments": [
        "0xb1BfB47518E59Ad7568F3b6b0a71733A41fC99ad"
      ],
      "rpc": "https://eth-goerli.g.alchemy.com/v2/z1IFdYsIK9IWoKu9o68vYQV7uoCf9fT3",
      "transaction": {
        "type": "0x02",
        "from": "0xb1bfb47518e59ad7568f3b6b0a71733a41fc99ad",
        "to": "0xc7f2cf4845c6db0e1a1e91ed41bcd0fcc1b0e141",
        "gas": "0x73a2",
        "value": "0x0",
        "data": "0xf9284baf000000000000000000000000b1bfb47518e59ad7568f3b6b0a71733a41fc99ad",
        "nonce": "0x121",
        "accessList": []
      },
      "additionalContracts": [],
      "isFixedGasLimit": false
    }
  ],
  "receipts": [
    {
      "transactionHash": "0xe8ee832a6aa4dcf0d8c4684a7375fff6fcf9f924e0bb626048e21a4d98f09fe7",
      "transactionIndex": "0x23",
      "blockHash": "0x427fa59491a68d0e1894d35103e0cce93172ee630396f90d0e88c980a7ca324c",
      "blockNumber": "0x86464b",
      "from": "0xb1BfB47518E59Ad7568F3b6b0a71733A41fC99ad",
      "to": "0xC7f2Cf4845C6db0e1a1e91ED41Bcd0FcC1b0E141",
      "cumulativeGasUsed": "0x201b44",
      "gasUsed": "0x5248",
      "contractAddress": null,
      "logs": [],
      "status": "0x1",
      "logsBloom": "0x00000000000000000000000000000000000000000000000000000000000000000000000000000000000000000000000000000000000000000000000000000000000000000000000000000000000000000000000000000000000000000000000000000000000000000000000000000000000000000000000000000000000000000000000000000000000000000000000000000000000000000000000000000000000000000000000000000000000000000000000000000000000000000000000000000000000000000000000000000000000000000000000000000000000000000000000000000000000000000000000000000000000000000000000000000000",
      "type": "0x2",
      "effectiveGasPrice": "0x1aa314748b"
    },
    {
      "transactionHash": "0xc1d7fb137b33a185398585bc45da1eb8fc4a4a31fcf46e81841b199e4e6792fe",
      "transactionIndex": "0x24",
      "blockHash": "0x427fa59491a68d0e1894d35103e0cce93172ee630396f90d0e88c980a7ca324c",
      "blockNumber": "0x86464b",
      "from": "0xb1BfB47518E59Ad7568F3b6b0a71733A41fC99ad",
      "to": "0xC7f2Cf4845C6db0e1a1e91ED41Bcd0FcC1b0E141",
      "cumulativeGasUsed": "0x206d8c",
      "gasUsed": "0x5248",
      "contractAddress": null,
      "logs": [],
      "status": "0x1",
      "logsBloom": "0x00000000000000000000000000000000000000000000000000000000000000000000000000000000000000000000000000000000000000000000000000000000000000000000000000000000000000000000000000000000000000000000000000000000000000000000000000000000000000000000000000000000000000000000000000000000000000000000000000000000000000000000000000000000000000000000000000000000000000000000000000000000000000000000000000000000000000000000000000000000000000000000000000000000000000000000000000000000000000000000000000000000000000000000000000000000",
      "type": "0x2",
      "effectiveGasPrice": "0x1aa314748b"
    },
    {
      "transactionHash": "0xd1be532367d5e3d01c8646a010c706bc3ab4ae261275e94f0026f0bf21785466",
      "transactionIndex": "0x25",
      "blockHash": "0x427fa59491a68d0e1894d35103e0cce93172ee630396f90d0e88c980a7ca324c",
      "blockNumber": "0x86464b",
      "from": "0xb1BfB47518E59Ad7568F3b6b0a71733A41fC99ad",
      "to": "0xC7f2Cf4845C6db0e1a1e91ED41Bcd0FcC1b0E141",
      "cumulativeGasUsed": "0x20c144",
      "gasUsed": "0x53b8",
      "contractAddress": null,
      "logs": [],
      "status": "0x1",
      "logsBloom": "0x00000000000000000000000000000000000000000000000000000000000000000000000000000000000000000000000000000000000000000000000000000000000000000000000000000000000000000000000000000000000000000000000000000000000000000000000000000000000000000000000000000000000000000000000000000000000000000000000000000000000000000000000000000000000000000000000000000000000000000000000000000000000000000000000000000000000000000000000000000000000000000000000000000000000000000000000000000000000000000000000000000000000000000000000000000000",
      "type": "0x2",
      "effectiveGasPrice": "0x1aa314748b"
    }
  ],
  "libraries": [],
  "pending": [],
  "path": "/Users/chloe/Learning0323/ethernaut/broadcast/Reentrance.s.sol/5/run-latest.json",
  "returns": {},
  "timestamp": 1681029329,
  "chain": 5,
  "multi": false,
  "commit": "85e45ea"
}