{
  "transactions": [
    {
      "hash": "0x081c9419c8fe34ca9f5b857ce25d2262c9cc707daad795660284f68d2ec0e436",
      "transactionType": "CALL",
      "contractName": "ReentranceHack",
      "contractAddress": "0xC7f2Cf4845C6db0e1a1e91ED41Bcd0FcC1b0E141",
      "function": "donate()",
      "arguments": [],
      "rpc": "https://eth-goerli.g.alchemy.com/v2/z1IFdYsIK9IWoKu9o68vYQV7uoCf9fT3",
      "transaction": {
        "type": "0x02",
        "from": "0xb1bfb47518e59ad7568f3b6b0a71733a41fc99ad",
        "to": "0xc7f2cf4845c6db0e1a1e91ed41bcd0fcc1b0e141",
        "gas": "0x71a6",
        "value": "0x0",
        "data": "0xed88c68e",
        "nonce": "0x11b",
        "accessList": []
      },
      "additionalContracts": [],
      "isFixedGasLimit": false
    },
    {
      "hash": "0xd039e8dd0d1782226f417dcb07ce9f62be1cfe3aadaa7fd402c239a65998a1c6",
      "transactionType": "CALL",
      "contractName": "ReentranceHack",
      "contractAddress": "0xC7f2Cf4845C6db0e1a1e91ED41Bcd0FcC1b0E141",
      "function": "hack()",
      "arguments": [],
      "rpc": "https://eth-goerli.g.alchemy.com/v2/z1IFdYsIK9IWoKu9o68vYQV7uoCf9fT3",
      "transaction": {
        "type": "0x02",
        "from": "0xb1bfb47518e59ad7568f3b6b0a71733a41fc99ad",
        "to": "0xc7f2cf4845c6db0e1a1e91ed41bcd0fcc1b0e141",
        "gas": "0x71a6",
        "value": "0x0",
        "data": "0x4de260a2",
        "nonce": "0x11c",
        "accessList": []
      },
      "additionalContracts": [],
      "isFixedGasLimit": false
    },
    {
      "hash": null,
      "transactionType": "CALL",
      "contractName": "ReentranceHack",
      "contractAddress": "0xC7f2Cf4845C6db0e1a1e91ED41Bcd0FcC1b0E141",
      "function": "fundmeback(address)",
      "arguments": [
        "0xb1BfB47518E59Ad7568F3b6b0a71733A41fC99ad"
      ],
      "rpc": "https://eth-goerli.g.alchemy.com/v2/z1IFdYsIK9IWoKu9o68vYQV7uoCf9fT3",
      "transaction": {
        "type": "0x02",
        "from": "0xb1bfb47518e59ad7568f3b6b0a71733a41fc99ad",
        "to": "0xc7f2cf4845c6db0e1a1e91ed41bcd0fcc1b0e141",
        "gas": "0x73a2",
        "value": "0x0",
        "data": "0xf9284baf000000000000000000000000b1bfb47518e59ad7568f3b6b0a71733a41fc99ad",
        "nonce": "0x11d",
        "accessList": []
      },
      "additionalContracts": [],
      "isFixedGasLimit": false
    }
  ],
  "receipts": [],
  "libraries": [],
  "pending": [
    "0x081c9419c8fe34ca9f5b857ce25d2262c9cc707daad795660284f68d2ec0e436",
    "0xd039e8dd0d1782226f417dcb07ce9f62be1cfe3aadaa7fd402c239a65998a1c6"
  ],
  "path": "/Users/chloe/Learning0323/ethernaut/broadcast/Reentrance.s.sol/5/run-latest.json",
  "returns": {},
  "timestamp": 1681028564,
  "chain": 5,
  "multi": false,
  "commit": "85e45ea"
}