{
  "transactions": [
    {
      "hash": "0xf6d4a27b6823b83c669fa4ceddfa3c6ce1078cd5f25119e6822cb3c9fb791b78",
      "transactionType": "CALL",
      "contractName": "TelephoneCAll",
      "contractAddress": "0xC7f2Cf4845C6db0e1a1e91ED41Bcd0FcC1b0E141",
      "function": "callChange(address)",
      "arguments": [
        "0xb1BfB47518E59Ad7568F3b6b0a71733A41fC99ad"
      ],
      "rpc": "https://eth-goerli.g.alchemy.com/v2/z1IFdYsIK9IWoKu9o68vYQV7uoCf9fT3",
      "transaction": {
        "type": "0x02",
        "from": "0xb1bfb47518e59ad7568f3b6b0a71733a41fc99ad",
        "to": "0xc7f2cf4845c6db0e1a1e91ed41bcd0fcc1b0e141",
        "gas": "0x73a2",
        "value": "0x0",
        "data": "0x7add5f9d000000000000000000000000b1bfb47518e59ad7568f3b6b0a71733a41fc99ad",
        "nonce": "0xfd",
        "accessList": []
      },
      "additionalContracts": [],
      "isFixedGasLimit": false
    }
  ],
  "receipts": [],
  "libraries": [],
  "pending": [
    "0xf6d4a27b6823b83c669fa4ceddfa3c6ce1078cd5f25119e6822cb3c9fb791b78"
  ],
  "path": "/Users/chloe/Learning0323/ethernaut/broadcast/tellphone.s.sol/5/run-latest.json",
  "returns": {},
  "timestamp": 1680941702,
  "chain": 5,
  "multi": false,
  "commit": "85e45ea"
}